{
  "contractName": "VIP_Level",
  "abi": [
    {
      "inputs": [],
      "payable": false,
      "stateMutability": "nonpayable",
      "type": "constructor"
    },
    {
      "anonymous": false,
      "inputs": [
        {
          "indexed": false,
          "name": "user",
          "type": "string"
        }
      ],
      "name": "UserAdd",
      "type": "event"
    },
    {
      "constant": true,
      "inputs": [],
      "name": "getAllUsers",
      "outputs": [
        {
          "components": [
            {
              "name": "id",
              "type": "uint256"
            },
            {
              "name": "name",
              "type": "string"
            },
            {
              "name": "balance",
              "type": "uint256"
            },
            {
              "name": "total_deposited",
              "type": "uint256"
            },
            {
              "name": "total_withdrawn",
              "type": "uint256"
            },
            {
              "name": "debt",
              "type": "uint256"
            },
            {
              "name": "usage_score",
              "type": "uint256"
            },
            {
              "name": "pay_score",
              "type": "uint256"
            }
          ],
          "name": "",
          "type": "tuple[]"
        }
      ],
      "payable": false,
      "stateMutability": "view",
      "type": "function"
    },
    {
      "constant": true,
      "inputs": [
        {
          "name": "id",
          "type": "uint256"
        }
      ],
      "name": "getUser",
      "outputs": [
        {
          "name": "",
          "type": "string"
        }
      ],
      "payable": false,
      "stateMutability": "view",
      "type": "function"
    },
    {
      "constant": true,
      "inputs": [
        {
          "name": "id",
          "type": "uint256"
        }
      ],
      "name": "getVIP",
      "outputs": [
        {
          "name": "",
          "type": "uint256"
        }
      ],
      "payable": false,
      "stateMutability": "view",
      "type": "function"
    },
    {
      "constant": false,
      "inputs": [
        {
          "name": "name",
          "type": "string"
        }
      ],
      "name": "addUser",
      "outputs": [
        {
          "name": "",
          "type": "uint256"
        }
      ],
      "payable": false,
      "stateMutability": "nonpayable",
      "type": "function"
    },
    {
      "constant": false,
      "inputs": [
        {
          "name": "data",
          "type": "bytes32"
        }
      ],
      "name": "bytes32ToString",
      "outputs": [
        {
          "name": "",
          "type": "string"
        }
      ],
      "payable": false,
      "stateMutability": "nonpayable",
      "type": "function"
    },
    {
      "constant": false,
      "inputs": [
        {
          "name": "min",
          "type": "uint256"
        },
        {
          "name": "max",
          "type": "uint256"
        }
      ],
      "name": "random",
      "outputs": [
        {
          "name": "",
          "type": "uint256"
        }
      ],
      "payable": false,
      "stateMutability": "nonpayable",
      "type": "function"
    },
    {
      "constant": false,
      "inputs": [
        {
          "name": "_id",
          "type": "uint256"
        }
      ],
      "name": "calculate_VIP",
      "outputs": [
        {
          "name": "",
          "type": "uint256"
        }
      ],
      "payable": false,
      "stateMutability": "nonpayable",
      "type": "function"
    },
    {
      "constant": false,
      "inputs": [
        {
          "name": "_id",
          "type": "uint256"
        },
        {
          "name": "amount",
          "type": "uint256"
        }
      ],
      "name": "addBalance",
      "outputs": [],
      "payable": false,
      "stateMutability": "nonpayable",
      "type": "function"
    },
    {
      "constant": false,
      "inputs": [
        {
          "name": "id",
          "type": "uint256"
        }
      ],
      "name": "getBalance",
      "outputs": [
        {
          "name": "",
          "type": "uint256"
        }
      ],
      "payable": false,
      "stateMutability": "nonpayable",
      "type": "function"
    }
  ],
  "bytecode": "0x608060405260006004553480156200001657600080fd5b50620000666040805190810160405280600381526020017f4b656e00000000000000000000000000000000000000000000000000000000008152506200035b640100000000026401000000009004565b506200008560016103e862000594640100000000026401000000009004565b620000d46040805190810160405280600581526020017f59696a69610000000000000000000000000000000000000000000000000000008152506200035b640100000000026401000000009004565b50620001246040805190810160405280600481526020017f4e69636b000000000000000000000000000000000000000000000000000000008152506200035b640100000000026401000000009004565b50620001746040805190810160405280600781526020017f4d656c69737361000000000000000000000000000000000000000000000000008152506200035b640100000000026401000000009004565b50620001c46040805190810160405280600481526020017f4d617269000000000000000000000000000000000000000000000000000000008152506200035b640100000000026401000000009004565b50620002146040805190810160405280600681526020017f4e69636f6c6900000000000000000000000000000000000000000000000000008152506200035b640100000000026401000000009004565b50620002646040805190810160405280600481526020017f456c6f6e000000000000000000000000000000000000000000000000000000008152506200035b640100000000026401000000009004565b50620002b46040805190810160405280600881526020017f42656e6a616d696e0000000000000000000000000000000000000000000000008152506200035b640100000000026401000000009004565b50620003046040805190810160405280600881526020017f4672616e6b6c696e0000000000000000000000000000000000000000000000008152506200035b640100000000026401000000009004565b50620003546040805190810160405280600581526020017f4672616e7a0000000000000000000000000000000000000000000000000000008152506200035b640100000000026401000000009004565b5062000915565b6000620003676200076e565b6001600054016000819055506101006040519081016040528060005481526020018481526020016000815260200160058152602001620003b960006064620005bf640100000000026401000000009004565b8152602001620003db60006064620005bf640100000000026401000000009004565b8152602001620003fd60006064620005bf640100000000026401000000009004565b81526020016200041f60006064620005bf640100000000026401000000009004565b8152509050600181908060018154018082558091505090600182039060005260206000209060080201600090919290919091506000820151816000015560208201518160010190805190602001906200047a929190620007b4565b5060408201518160020155606082015181600301556080820151816004015560a0820151816005015560c0820151816006015560e08201518160070155505050806002600080548152602001908152602001600020600082015181600001556020820151816001019080519060200190620004f7929190620007b4565b5060408201518160020155606082015181600301556080820151816004015560a0820151816005015560c0820151816006015560e082015181600701559050507f848d4c36d4f100da30208d4a3579b0fa674b9087be587d7fcab4b99ce01dddc4836040516200056891906200089f565b60405180910390a16200058c60005462000607640100000000026401000000009004565b915050919050565b6000600260008481526020019081526020016000209050818160020154018160020181905550505050565b60006004600081548092919060010191905055508282840160045460405180828152602001915050604051809103902060019004811515620005fd57fe5b0603905092915050565b6000620006136200076e565b600060026000858152602001908152602001600020610100604051908101604052908160008201548152602001600182018054600181600116156101000203166002900480601f016020809104026020016040519081016040528092919081815260200182805460018160011615610100020316600290048015620006dc5780601f10620006b057610100808354040283529160200191620006dc565b820191906000526020600020905b815481529060010190602001808311620006be57829003601f168201915b50505050508152602001600282015481526020016003820154815260200160048201548152602001600582015481526020016006820154815260200160078201548152505091508160a001518260e001518360c0015184608001518560600151866040015101010101039050806003600084600001518152602001908152602001600020819055508092505050919050565b6101006040519081016040528060008152602001606081526020016000815260200160008152602001600081526020016000815260200160008152602001600081525090565b828054600181600116156101000203166002900490600052602060002090601f016020900481019282601f10620007f757805160ff191683800117855562000828565b8280016001018555821562000828579182015b82811115620008275782518255916020019190600101906200080a565b5b5090506200083791906200083b565b5090565b6200086091905b808211156200085c57600081600090555060010162000842565b5090565b90565b60006200087082620008c3565b80845262000886816020860160208601620008ce565b620008918162000904565b602085010191505092915050565b60006020820190508181036000830152620008bb818462000863565b905092915050565b600081519050919050565b60005b83811015620008ee578082015181840152602081019050620008d1565b83811115620008fe576000848401525b50505050565b6000601f19601f8301169050919050565b610f0280620009256000396000f300608060405260043610610099576000357c0100000000000000000000000000000000000000000000000000000000900463ffffffff16806318b8275a1461009e5780631e010439146100db5780632c5770d5146101185780639201de5514610155578063a40398a614610192578063a9dd1225146101bb578063b0467deb146101f8578063b63bb04614610235578063e2842d7914610272575b600080fd5b3480156100aa57600080fd5b506100c560048036036100c09190810190610b25565b61029d565b6040516100d29190610da8565b60405180910390f35b3480156100e757600080fd5b5061010260048036036100fd9190810190610b66565b610479565b60405161010f9190610da8565b60405180910390f35b34801561012457600080fd5b5061013f600480360361013a9190810190610b66565b610499565b60405161014c9190610da8565b60405180910390f35b34801561016157600080fd5b5061017c60048036036101779190810190610afc565b6104b6565b6040516101899190610d86565b60405180910390f35b34801561019e57600080fd5b506101b960048036036101b49190810190610b8f565b6105b9565b005b3480156101c757600080fd5b506101e260048036036101dd9190810190610b8f565b6105e4565b6040516101ef9190610da8565b60405180910390f35b34801561020457600080fd5b5061021f600480360361021a9190810190610b66565b61062b565b60405161022c9190610d86565b60405180910390f35b34801561024157600080fd5b5061025c60048036036102579190810190610b66565b6106e9565b6040516102699190610da8565b60405180910390f35b34801561027e57600080fd5b5061028761084a565b6040516102949190610d64565b60405180910390f35b60006102a7610993565b60016000540160008190555061010060405190810160405280600054815260200184815260200160008152602001600581526020016102e8600060646105e4565b81526020016102f9600060646105e4565b815260200161030a600060646105e4565b815260200161031b600060646105e4565b8152509050600181908060018154018082558091505090600182039060005260206000209060080201600090919290919091506000820151816000015560208201518160010190805190602001906103749291906109d9565b5060408201518160020155606082015181600301556080820151816004015560a0820151816005015560c0820151816006015560e082015181600701555050508060026000805481526020019081526020016000206000820151816000015560208201518160010190805190602001906103ef9291906109d9565b5060408201518160020155606082015181600301556080820151816004015560a0820151816005015560c0820151816006015560e082015181600701559050507f848d4c36d4f100da30208d4a3579b0fa674b9087be587d7fcab4b99ce01dddc48360405161045e9190610d86565b60405180910390a16104716000546106e9565b915050919050565b600060026000838152602001908152602001600020600201549050919050565b600060036000838152602001908152602001600020549050919050565b60608060008060206040519080825280601f01601f1916602001820160405280156104f05781602001602082028038833980820191505090505b509250600091505b60208210156105ae578160080260020a856001900402600102905060007f010000000000000000000000000000000000000000000000000000000000000002817effffffffffffffffffffffffffffffffffffffffffffffffffffffffffffff19161415156105a15780838381518110151561057057fe5b9060200101907effffffffffffffffffffffffffffffffffffffffffffffffffffffffffffff1916908160001a9053505b81806001019250506104f8565b829350505050919050565b6000600260008481526020019081526020016000209050818160020154018160020181905550505050565b6000600460008154809291906001019190505550828284016004546040518082815260200191505060405180910390206001900481151561062157fe5b0603905092915050565b60606000600260008481526020019081526020016000209050806001018054600181600116156101000203166002900480601f0160208091040260200160405190810160405280929190818152602001828054600181600116156101000203166002900480156106dc5780601f106106b1576101008083540402835291602001916106dc565b820191906000526020600020905b8154815290600101906020018083116106bf57829003601f168201915b5050505050915050919050565b60006106f3610993565b600060026000858152602001908152602001600020610100604051908101604052908160008201548152602001600182018054600181600116156101000203166002900480601f0160208091040260200160405190810160405280929190818152602001828054600181600116156101000203166002900480156107b85780601f1061078d576101008083540402835291602001916107b8565b820191906000526020600020905b81548152906001019060200180831161079b57829003601f168201915b50505050508152602001600282015481526020016003820154815260200160048201548152602001600582015481526020016006820154815260200160078201548152505091508160a001518260e001518360c0015184608001518560600151866040015101010101039050806003600084600001518152602001908152602001600020819055508092505050919050565b60606001805480602002602001604051908101604052809291908181526020016000905b8282101561098a5783829060005260206000209060080201610100604051908101604052908160008201548152602001600182018054600181600116156101000203166002900480601f0160208091040260200160405190810160405280929190818152602001828054600181600116156101000203166002900480156109365780601f1061090b57610100808354040283529160200191610936565b820191906000526020600020905b81548152906001019060200180831161091957829003601f168201915b5050505050815260200160028201548152602001600382015481526020016004820154815260200160058201548152602001600682015481526020016007820154815250508152602001906001019061086e565b50505050905090565b6101006040519081016040528060008152602001606081526020016000815260200160008152602001600081526020016000815260200160008152602001600081525090565b828054600181600116156101000203166002900490600052602060002090601f016020900481019282601f10610a1a57805160ff1916838001178555610a48565b82800160010185558215610a48579182015b82811115610a47578251825591602001919060010190610a2c565b5b509050610a559190610a59565b5090565b610a7b91905b80821115610a77576000816000905550600101610a5f565b5090565b90565b6000610a8a8235610e61565b905092915050565b600082601f8301121515610aa557600080fd5b8135610ab8610ab382610df0565b610dc3565b91508082526020830160208301858383011115610ad457600080fd5b610adf838284610e75565b50505092915050565b6000610af48235610e6b565b905092915050565b600060208284031215610b0e57600080fd5b6000610b1c84828501610a7e565b91505092915050565b600060208284031215610b3757600080fd5b600082013567ffffffffffffffff811115610b5157600080fd5b610b5d84828501610a92565b91505092915050565b600060208284031215610b7857600080fd5b6000610b8684828501610ae8565b91505092915050565b60008060408385031215610ba257600080fd5b6000610bb085828601610ae8565b9250506020610bc185828601610ae8565b9150509250929050565b6000610bd682610e29565b80845260208401935083602082028501610bef85610e1c565b60005b84811015610c28578383038852610c0a838351610ca5565b9250610c1582610e4a565b9150602088019750600181019050610bf2565b508196508694505050505092915050565b6000610c4482610e3f565b808452610c58816020860160208601610e84565b610c6181610eb7565b602085010191505092915050565b6000610c7a82610e34565b808452610c8e816020860160208601610e84565b610c9781610eb7565b602085010191505092915050565b600061010083016000830151610cbe6000860182610d55565b5060208301518482036020860152610cd68282610c6f565b9150506040830151610ceb6040860182610d55565b506060830151610cfe6060860182610d55565b506080830151610d116080860182610d55565b5060a0830151610d2460a0860182610d55565b5060c0830151610d3760c0860182610d55565b5060e0830151610d4a60e0860182610d55565b508091505092915050565b610d5e81610e57565b82525050565b60006020820190508181036000830152610d7e8184610bcb565b905092915050565b60006020820190508181036000830152610da08184610c39565b905092915050565b6000602082019050610dbd6000830184610d55565b92915050565b6000604051905081810181811067ffffffffffffffff82111715610de657600080fd5b8060405250919050565b600067ffffffffffffffff821115610e0757600080fd5b601f19601f8301169050602081019050919050565b6000602082019050919050565b600081519050919050565b600081519050919050565b600081519050919050565b6000602082019050919050565b6000819050919050565b6000819050919050565b6000819050919050565b82818337600083830152505050565b60005b83811015610ea2578082015181840152602081019050610e87565b83811115610eb1576000848401525b50505050565b6000601f19601f83011690509190505600a265627a7a723058206103df00df710b1d066a802251cbfecde57f1bfb699e17fd782c22d3763c6e056c6578706572696d656e74616cf50037",
  "source": "pragma solidity ^0.4.23;\npragma experimental ABIEncoderV2;\n\ncontract VIP_Level {\n\n    // User Struct whos elements will be used to determine VIP Level\n    struct User {\n        uint256 id;                 // ID number for the user\n        string name;                // Name of user\n        uint256 balance;            // Total Balance in their Account\n        uint256 total_deposited;    // Total amount the user has deposited\n        uint256 total_withdrawn;    // Total amount withdrawn from the user account\n        uint256 debt;               // Outstanding Debt the user has yet to pay\n\n        uint256 usage_score;        // 1-10 based on how often the user uses the banking service\n        uint256 pay_score;          // 1-10 based on how good they are at paying their bills\n    }\n\n\n    // Keeps track of ID Number (Count of Users)\n    uint256 id_num;\n\n    //List of all Users\n    User[] allUsers;  \n\n    //Mappings from ID -> User and ID -> VIP Score\n    mapping(uint256=>User) BankUser;\n    mapping(uint256=>uint256) VIPScore;\n\n    event UserAdd(string user);\n\n    \n    constructor() public {\n        addUser(\"Ken\");\n        addBalance(1,1000);\n        addUser(\"Yijia\");\n        addUser(\"Nick\");\n        addUser(\"Melissa\");\n        addUser(\"Mari\");\n        addUser(\"Nicoli\");\n        addUser(\"Elon\");\n        addUser(\"Benjamin\");\n        addUser(\"Franklin\");\n        addUser(\"Franz\");\n    }\n\n    function getAllUsers() public view returns (User[]) {\n        return allUsers;\n    }\n    \n    function getUser(uint256 id) public view returns (string) {\n        User user = BankUser[id];\n        return user.name;\n    }\n\n    function getVIP(uint256 id) public view returns (uint256) {\n        return VIPScore[id];\n    }\n\n    function addUser(string name) public returns (uint256) {\n        id_num = id_num + 1;\n        User memory newUser = User(id_num, name, 0, 5 ,random(0,100), random(0,100), random(0,100), random(0,100));\n        allUsers.push(newUser);\n        BankUser[id_num] = newUser;\n        emit UserAdd(name);\n        return calculate_VIP(id_num);\n        \n    }\n\n\n    function bytes32ToString (bytes32 data) public returns (string) {\n        bytes memory bytesString = new bytes(32);\n        for (uint j = 0; j < 32; j++ ) {\n            byte char = byte(bytes32(uint(data) * 2 ** (8 * j)));\n            if (char != 0) {\n                bytesString[j] = char;\n            }\n        }\n        return string(bytesString);\n    }\n\n    uint nonce = 0;\n    function random(uint min, uint max) public returns (uint){\n        nonce++;\n        return uint(keccak256(nonce))%(min+max)-min;\n    }\n\n\n    function calculate_VIP(uint256 _id) public returns (uint256) {\n        User memory _user = BankUser[_id];\n        uint256 VIP = _user.balance + _user.total_deposited + _user.total_withdrawn + _user.usage_score + _user.pay_score - _user.debt;\n        VIPScore[_user.id] = VIP;\n        return VIP;\n    }\n\n    function addBalance(uint256 _id, uint256 amount) public {\n        User user = BankUser[_id];\n        user.balance = user.balance + amount;\n    }\n\n    function getBalance(uint256 id) public returns (uint256) {\n        return BankUser[id].balance;\n    }\n}",
  "sourcePath": "/Users/kenmiyachi/Startups/Origo/assignment/public_cs/contracts/VIP_Level.sol",
  "compiler": {
    "name": "solc",
    "version": "0.4.24+commit.e67f0147.Emscripten.clang"
  },
  "schemaVersion": "2.0.1",
  "updatedAt": "2018-10-27T19:08:38.126Z"
}