{
  "contractName": "Verifier",
  "abi": [
    {
      "constant": true,
      "inputs": [
        {
          "name": "",
          "type": "uint256"
        }
      ],
      "name": "weights2",
      "outputs": [
        {
          "name": "",
          "type": "uint256"
        }
      ],
      "payable": false,
      "stateMutability": "view",
      "type": "function"
    },
    {
      "constant": true,
      "inputs": [],
      "name": "weights",
      "outputs": [
        {
          "name": "w1",
          "type": "uint256"
        },
        {
          "name": "w2",
          "type": "uint256"
        },
        {
          "name": "w3",
          "type": "uint256"
        },
        {
          "name": "w4",
          "type": "uint256"
        },
        {
          "name": "w5",
          "type": "uint256"
        },
        {
          "name": "w6",
          "type": "uint256"
        }
      ],
      "payable": false,
      "stateMutability": "view",
      "type": "function"
    },
    {
      "inputs": [],
      "payable": false,
      "stateMutability": "nonpayable",
      "type": "constructor"
    },
    {
      "anonymous": false,
      "inputs": [
        {
          "indexed": false,
          "name": "s",
          "type": "string"
        }
      ],
      "name": "Verified",
      "type": "event"
    },
    {
      "anonymous": false,
      "inputs": [
        {
          "indexed": false,
          "name": "user",
          "type": "string"
        }
      ],
      "name": "UserAdd",
      "type": "event"
    },
    {
      "anonymous": false,
      "inputs": [
        {
          "indexed": false,
          "name": "num",
          "type": "uint256"
        }
      ],
      "name": "UpdateWeights",
      "type": "event"
    },
    {
      "constant": false,
      "inputs": [
        {
          "name": "a",
          "type": "uint256[2]"
        },
        {
          "name": "a_p",
          "type": "uint256[2]"
        },
        {
          "name": "b",
          "type": "uint256[2][2]"
        },
        {
          "name": "b_p",
          "type": "uint256[2]"
        },
        {
          "name": "c",
          "type": "uint256[2]"
        },
        {
          "name": "c_p",
          "type": "uint256[2]"
        },
        {
          "name": "h",
          "type": "uint256[2]"
        },
        {
          "name": "k",
          "type": "uint256[2]"
        },
        {
          "name": "input",
          "type": "uint256[2]"
        }
      ],
      "name": "verifyTx",
      "outputs": [
        {
          "name": "r",
          "type": "bool"
        }
      ],
      "payable": false,
      "stateMutability": "nonpayable",
      "type": "function"
    },
    {
      "constant": false,
      "inputs": [
        {
          "name": "name",
          "type": "string"
        }
      ],
      "name": "addUser",
      "outputs": [
        {
          "name": "",
          "type": "uint256"
        }
      ],
      "payable": false,
      "stateMutability": "nonpayable",
      "type": "function"
    },
    {
      "constant": true,
      "inputs": [
        {
          "name": "data",
          "type": "bytes32"
        }
      ],
      "name": "bytes32ToString",
      "outputs": [
        {
          "name": "",
          "type": "string"
        }
      ],
      "payable": false,
      "stateMutability": "pure",
      "type": "function"
    },
    {
      "constant": false,
      "inputs": [
        {
          "name": "woah",
          "type": "uint256[6]"
        }
      ],
      "name": "setWeights",
      "outputs": [
        {
          "name": "",
          "type": "uint256"
        }
      ],
      "payable": false,
      "stateMutability": "nonpayable",
      "type": "function"
    },
    {
      "constant": true,
      "inputs": [],
      "name": "getWeights",
      "outputs": [
        {
          "name": "w1",
          "type": "uint256"
        },
        {
          "name": "w2",
          "type": "uint256"
        },
        {
          "name": "w3",
          "type": "uint256"
        },
        {
          "name": "w4",
          "type": "uint256"
        },
        {
          "name": "w5",
          "type": "uint256"
        },
        {
          "name": "w6",
          "type": "uint256"
        }
      ],
      "payable": false,
      "stateMutability": "view",
      "type": "function"
    },
    {
      "constant": true,
      "inputs": [
        {
          "name": "id",
          "type": "uint256"
        }
      ],
      "name": "getUser",
      "outputs": [
        {
          "name": "hash",
          "type": "bytes32"
        },
        {
          "name": "name",
          "type": "string"
        }
      ],
      "payable": false,
      "stateMutability": "view",
      "type": "function"
    }
  ],
  "bytecode": "0x608060405260c0604051908101604052806001815260200160018152602001600181526020016001815260200160018152602001600181525060008082015181600001556020820151816001015560408201518160020155606082015181600301556080820151816004015560a08201518160050155505060c060405190810160405280600160ff168152602001600160ff168152602001600160ff168152602001600160ff168152602001600160ff168152602001600160ff168152506006906006620000cf92919062000914565b506000600d55348015620000e257600080fd5b50620001326040805190810160405280600381526020017f4b656e000000000000000000000000000000000000000000000000000000000081525062000409640100000000026401000000009004565b50620001826040805190810160405280600581526020017f59696a696100000000000000000000000000000000000000000000000000000081525062000409640100000000026401000000009004565b50620001d26040805190810160405280600481526020017f4e69636b0000000000000000000000000000000000000000000000000000000081525062000409640100000000026401000000009004565b50620002226040805190810160405280600781526020017f4d656c697373610000000000000000000000000000000000000000000000000081525062000409640100000000026401000000009004565b50620002726040805190810160405280600481526020017f4d6172690000000000000000000000000000000000000000000000000000000081525062000409640100000000026401000000009004565b50620002c26040805190810160405280600681526020017f4e69636f6c69000000000000000000000000000000000000000000000000000081525062000409640100000000026401000000009004565b50620003126040805190810160405280600481526020017f456c6f6e0000000000000000000000000000000000000000000000000000000081525062000409640100000000026401000000009004565b50620003626040805190810160405280600881526020017f42656e6a616d696e00000000000000000000000000000000000000000000000081525062000409640100000000026401000000009004565b50620003b26040805190810160405280600881526020017f4672616e6b6c696e00000000000000000000000000000000000000000000000081525062000409640100000000026401000000009004565b50620004026040805190810160405280600581526020017f4672616e7a00000000000000000000000000000000000000000000000000000081525062000409640100000000026401000000009004565b5062000adc565b600080620004166200095e565b6001600c5401600c819055506200045b62000445600c5460010262000632640100000000026401000000009004565b856200073a640100000000026401000000009004565b6040516020018082805190602001908083835b6020831015156200049557805182526020820191506020810190506020830392506200046e565b6001836020036101000a0380198251168184511680821785525050505050509050019150506040516020818303038152906040526040518082805190602001908083835b602083101515620005005780518252602082019150602081019050602083039250620004d9565b6001836020036101000a03801982511681845116808217855250505050505090500191505060405180910390209150604080519081016040528083600019168152602001858152509050600e8190806001815401808255809150509060018203906000526020600020906002020160009091929091909150600082015181600001906000191690556020820151816001019080519060200190620005a69291906200097b565b5050505080600f6000600c548152602001908152602001600020600082015181600001906000191690556020820151816001019080519060200190620005ee9291906200097b565b509050507f848d4c36d4f100da30208d4a3579b0fa674b9087be587d7fcab4b99ce01dddc48460405162000623919062000a66565b60405180910390a15050919050565b60608060008060206040519080825280601f01601f1916602001820160405280156200066d5781602001602082028038833980820191505090505b509250600091505b60208210156200072f578160080260020a856001900402600102905060007f010000000000000000000000000000000000000000000000000000000000000002817effffffffffffffffffffffffffffffffffffffffffffffffffffffffffffff19161415156200072157808383815181101515620006f057fe5b9060200101907effffffffffffffffffffffffffffffffffffffffffffffffffffffffffffff1916908160001a9053505b818060010192505062000675565b829350505050919050565b606080606080606060008088955087945084518651016040519080825280601f01601f191660200182016040528015620007835781602001602082028038833980820191505090505b50935083925060009150600090505b855181101562000849578581815181101515620007ab57fe5b9060200101517f010000000000000000000000000000000000000000000000000000000000000090047f01000000000000000000000000000000000000000000000000000000000000000283838060010194508151811015156200080b57fe5b9060200101907effffffffffffffffffffffffffffffffffffffffffffffffffffffffffffff1916908160001a905350808060010191505062000792565b600090505b8451811015620009055784818151811015156200086757fe5b9060200101517f010000000000000000000000000000000000000000000000000000000000000090047f0100000000000000000000000000000000000000000000000000000000000000028383806001019450815181101515620008c757fe5b9060200101907effffffffffffffffffffffffffffffffffffffffffffffffffffffffffffff1916908160001a90535080806001019150506200084e565b82965050505050505092915050565b82600681019282156200094b579160200282015b828111156200094a578251829060ff1690559160200191906001019062000928565b5b5090506200095a919062000a02565b5090565b604080519081016040528060008019168152602001606081525090565b828054600181600116156101000203166002900490600052602060002090601f016020900481019282601f10620009be57805160ff1916838001178555620009ef565b82800160010185558215620009ef579182015b82811115620009ee578251825591602001919060010190620009d1565b5b509050620009fe919062000a02565b5090565b62000a2791905b8082111562000a2357600081600090555060010162000a09565b5090565b90565b600062000a378262000a8a565b80845262000a4d81602086016020860162000a95565b62000a588162000acb565b602085010191505092915050565b6000602082019050818103600083015262000a82818462000a2a565b905092915050565b600081519050919050565b60005b8381101562000ab557808201518184015260208101905062000a98565b8381111562000ac5576000848401525b50505050565b6000601f19601f8301169050919050565b6127088062000aec6000396000f30060806040526004361061008e576000357c0100000000000000000000000000000000000000000000000000000000900463ffffffff16806318b8275a1461009357806322acb867146100d05780638b5d1f99146101005780639201de551461013d578063b0467deb1461017a578063b1cea359146101b8578063c649f040146101f5578063fe01ff6214610225575b600080fd5b34801561009f57600080fd5b506100ba60048036036100b59190810190612328565b610262565b6040516100c791906124df565b60405180910390f35b3480156100dc57600080fd5b506100e561045d565b6040516100f7969594939291906124fa565b60405180910390f35b34801561010c57600080fd5b5061012760048036036101229190810190612369565b61049d565b60405161013491906124df565b60405180910390f35b34801561014957600080fd5b50610164600480360361015f91908101906122ff565b6104b7565b604051610171919061249d565b60405180910390f35b34801561018657600080fd5b506101a1600480360361019c9190810190612369565b6105ba565b6040516101af92919061246d565b60405180910390f35b3480156101c457600080fd5b506101df60048036036101da91908101906122d6565b61068e565b6040516101ec91906124df565b60405180910390f35b34801561020157600080fd5b5061020a610749565b60405161021c969594939291906124fa565b60405180910390f35b34801561023157600080fd5b5061024c6004803603610247919081019061220b565b610773565b6040516102599190612452565b60405180910390f35b60008061026d611d00565b6001600c5401600c8190555061029061028a600c546001026104b7565b85610b15565b6040516020018082805190602001908083835b6020831015156102c857805182526020820191506020810190506020830392506102a3565b6001836020036101000a0380198251168184511680821785525050505050509050019150506040516020818303038152906040526040518082805190602001908083835b602083101515610331578051825260208201915060208101905060208303925061030c565b6001836020036101000a03801982511681845116808217855250505050505090500191505060405180910390209150604080519081016040528083600019168152602001858152509050600e81908060018154018082558091505090600182039060005260206000209060020201600090919290919091506000820151816000019060001916905560208201518160010190805190602001906103d5929190611d1d565b5050505080600f6000600c54815260200190815260200160002060008201518160000190600019169055602082015181600101908051906020019061041b929190611d1d565b509050507f848d4c36d4f100da30208d4a3579b0fa674b9087be587d7fcab4b99ce01dddc48460405161044e919061249d565b60405180910390a15050919050565b6000806000806000806000800154600060010154600060020154600060030154600060040154600060050154955095509550955095509550909192939495565b6006816006811015156104ac57fe5b016000915090505481565b60608060008060206040519080825280601f01601f1916602001820160405280156104f15781602001602082028038833980820191505090505b509250600091505b60208210156105af578160080260020a856001900402600102905060007f010000000000000000000000000000000000000000000000000000000000000002817effffffffffffffffffffffffffffffffffffffffffffffffffffffffffffff19161415156105a25780838381518110151561057157fe5b9060200101907effffffffffffffffffffffffffffffffffffffffffffffffffffffffffffff1916908160001a9053505b81806001019250506104f9565b829350505050919050565b600060606000600e848154811015156105cf57fe5b90600052602060002090600202019050806000015481600101808054600181600116156101000203166002900480601f01602080910402602001604051908101604052809291908181526020018280546001816001161561010002031660029004801561067d5780601f106106525761010080835404028352916020019161067d565b820191906000526020600020905b81548152906001019060200180831161066057829003601f168201915b505050505090509250925050915091565b600081600060068110151561069f57fe5b602002015160008001819055508160016006811015156106bb57fe5b60200201516000600101819055508160026006811015156106d857fe5b60200201516000600201819055508160036006811015156106f557fe5b602002015160006003018190555081600460068110151561071257fe5b602002015160006004018190555081600560068110151561072f57fe5b602002015160006005018190555060008001549050919050565b60008060000154908060010154908060020154908060030154908060040154908060050154905086565b600061077d611d9d565b6060600060408051908101604052808e600060028110151561079b57fe5b602002015181526020018e60016002811015156107b457fe5b6020020151815250836000018190525060408051908101604052808d60006002811015156107de57fe5b602002015181526020018d60016002811015156107f757fe5b60200201518152508360200181905250604080519081016040528060408051908101604052808e600060028110151561082c57fe5b6020020151600060028110151561083f57fe5b602002015181526020018e600060028110151561085857fe5b6020020151600160028110151561086b57fe5b6020020151815250815260200160408051908101604052808e600160028110151561089257fe5b602002015160006002811015156108a557fe5b602002015181526020018e60016002811015156108be57fe5b602002015160016002811015156108d157fe5b6020020151815250815250836040018190525060408051908101604052808b60006002811015156108fe57fe5b602002015181526020018b600160028110151561091757fe5b6020020151815250836060018190525060408051908101604052808a600060028110151561094157fe5b602002015181526020018a600160028110151561095a57fe5b60200201518152508360800181905250604080519081016040528089600060028110151561098457fe5b6020020151815260200189600160028110151561099d57fe5b60200201518152508360a0018190525060408051908101604052808860006002811015156109c757fe5b602002015181526020018860016002811015156109e057fe5b60200201518152508360e001819052506040805190810160405280876000600281101515610a0a57fe5b60200201518152602001876001600281101515610a2357fe5b60200201518152508360c001819052506002604051908082528060200260200182016040528015610a635781602001602082028038833980820191505090505b509150600090505b6002811015610ab0578481600281101515610a8257fe5b60200201518282815181101515610a9557fe5b90602001906020020181815250508080600101915050610a6b565b6000610abc8385610ce6565b1415610b00577f3f3cfdb26fb5f9f1786ab4f1a1f9cd4c0b5e726cbdfc26e495261731aad44e39604051610aef906124bf565b60405180910390a160019350610b05565b600093505b5050509998505050505050505050565b606080606080606060008088955087945084518651016040519080825280601f01601f191660200182016040528015610b5d5781602001602082028038833980820191505090505b50935083925060009150600090505b8551811015610c1f578581815181101515610b8357fe5b9060200101517f010000000000000000000000000000000000000000000000000000000000000090047f0100000000000000000000000000000000000000000000000000000000000000028383806001019450815181101515610be257fe5b9060200101907effffffffffffffffffffffffffffffffffffffffffffffffffffffffffffff1916908160001a9053508080600101915050610b6c565b600090505b8451811015610cd7578481815181101515610c3b57fe5b9060200101517f010000000000000000000000000000000000000000000000000000000000000090047f0100000000000000000000000000000000000000000000000000000000000000028383806001019450815181101515610c9a57fe5b9060200101907effffffffffffffffffffffffffffffffffffffffffffffffffffffffffffff1916908160001a9053508080600101915050610c24565b82965050505050505092915050565b6000610cf0611e13565b610cf8611e83565b6000610d02610f1d565b92508260e00151516001875101141515610d1b57600080fd5b60408051908101604052806000815260200160008152509150600090505b8551811015610d9957610d8a82610d858560e0015160018501815181101515610d5e57fe5b906020019060200201518985815181101515610d7657fe5b9060200190602002015161155d565b6115f9565b91508080600101915050610d39565b610dbf828460e001516000815181101515610db057fe5b906020019060200201516115f9565b9150610de885600001518460000151610ddb88602001516116b6565b610de3611751565b61181b565b1515610df75760019350610f14565b610e1e83602001518660400151610e1188606001516116b6565b610e19611751565b61181b565b1515610e2d5760029350610f14565b610e5485608001518460400151610e478860a001516116b6565b610e4f611751565b61181b565b1515610e635760039350610f14565b610eaf8560c001518460600151610e93610e8e86610e898b600001518c608001516115f9565b6115f9565b6116b6565b8660a00151610ea588608001516116b6565b8a60400151611926565b1515610ebe5760049350610f14565b610f00610ecf8387600001516115f9565b8660400151610ee18860e001516116b6565b8660c00151610ef38a608001516116b6565b610efb611751565b611926565b1515610f0f5760059350610f14565b600093505b50505092915050565b610f25611e13565b604080519081016040528060408051908101604052807f0f3f408d2bc3f51dc3c00c99ebd66aba2253cea7fdf3a5c9f912358197b05f7481526020017f13659340f4f6341dbb3ef7c032be44694ed428ea6f11ddd001f35a73c0044cf9815250815260200160408051908101604052807f1c706f3935470926064002699025a0619dfd9b57ece09bb6a07915d135335ea481526020017f0d6d14f16f9ae44f6179e1143f90ac84cf3e294ff228fcbd5664bde6b9879c33815250815250816000018190525060408051908101604052807f06d188e95e8690b4bb933ec643d615475434395e34d7fe101a5a6ee0603e376781526020017f21bc4a3280cd90560cbe9a8892016ee62212cd1ee52642890a75b1526f8358058152508160200181905250604080519081016040528060408051908101604052807f115f9515840902b62adf57fe92870dc007d65a2f5916da4877193a342421ee9981526020017f2ab55bc18464e76846380ff064825a4c3de4fa6c8432815527fe2e92280be61f815250815260200160408051908101604052807f016f240f2758de29d0fdbda3f4e8651b94334ee0b6e719bee02ffc66a82cb8e681526020017f1fe9c2583a24671c4d99dc1900183a8fee6c3195ee633f3f10431251471c38438152508152508160400181905250604080519081016040528060408051908101604052807f0881b8325ad6bfc0c02aad20a36d236c51c31f9905df3e76e4e57663236d929481526020017f2bd5727293a93ad6579cf781b2a3c576c180f2b9eec0169b27d6cb6451e0c00b815250815260200160408051908101604052807e823565a081d7249be81c57a7eaaf869a09943df77f5a81c7532f91fffbe02781526020017f08e104348f1d92ee14b0a669366748d5c49420532e7ff61ca882f0dc7871c979815250815250816060018190525060408051908101604052807f103a28945156124785dfbfc29a6b337cb61ae96683f3fabf442c08251a8c710181526020017f0d6ece0b1d3b6db1d75fbe706826c19f461b9d6c685664fc04b1e9fd10c817858152508160800181905250604080519081016040528060408051908101604052807f0b5b951747d7f744648bb6098f5c1f6bc2cdad5c34045364d18265fa7dcc412781526020017f0f51e06b6672555333cba534273af7808a6553cd354c6b3f3ab3e7e9f80e0fa8815250815260200160408051908101604052807f14132fcb151b88d4a70b262a17fb8e248cd30a386cf43cbb0da5b2fb8008fa6d81526020017f11e98ff548d9b2f5eed39074b0ba2e1f72df67d955208fee578ace8dba354d048152508152508160a00181905250604080519081016040528060408051908101604052807f09f05191be941b3d1d7f685efe4289fe0dce8a6e54403a563d61ea6da501848381526020017f254f80ff5961e25bcf7b1d26d40afd7e911fb86fe460ff18577865c9fd785a39815250815260200160408051908101604052807f20c748ce635a060d1108468f0e2943ff52200083ddc0a1eb795badcdb3cbfe8f81526020017f0cecc703383086a3ed4f66435c1b22aa472f478cbd2455ab57b211e53198e5938152508152508160c0018190525060036040519080825280602002602001820160405280156113f257816020015b6113df611e9d565b8152602001906001900390816113d75790505b508160e0018190525060408051908101604052807f0adc49208b8daf6732c9a1c1b7ffbb9be75d83be00811e4c9344abb374bfeed481526020017f2dd218ed882d624ac54899512fa4ba81f150f677c885c23810418cd68367ccaf8152508160e00151600081518110151561146357fe5b9060200190602002018190525060408051908101604052807f26ac79311204d42e4ff943831322280ef9f9f345b334ff71b52dda99ea4aea6981526020017f2c6f8e731bfc80416eb935f9e61064360bba4270a81c4b69d334ac480a988bd68152508160e0015160018151811015156114d857fe5b9060200190602002018190525060408051908101604052807f021376678a99024b68c9b7d7815eaa8db7a18322793d6ae82d33ccc8e3c2cc1881526020017f0afcfcf43684d6384a5b9227369b38146f5f3cec1798f449d5d2e2352f2160278152508160e00151600281518110151561154d57fe5b9060200190602002018190525090565b611565611e83565b61156d611eb7565b6000846000015182600060038110151561158357fe5b60200201818152505084602001518260016003811015156115a057fe5b602002018181525050838260026003811015156115b957fe5b602002018181525050606083608084600060076107d05a03f1905080600081146115e2576115e4565bfe5b508015156115f157600080fd5b505092915050565b611601611e83565b611609611eda565b6000846000015182600060048110151561161f57fe5b602002018181525050846020015182600160048110151561163c57fe5b602002018181525050836000015182600260048110151561165957fe5b602002018181525050836020015182600360048110151561167657fe5b60200201818152505060608360c084600060066107d05a03f19050806000811461169f576116a1565bfe5b508015156116ae57600080fd5b505092915050565b6116be611e83565b60007f30644e72e131a029b85045b68181585d97816a916871ca8d3c208c16d87cfd479050600083600001511480156116fb575060008360200151145b1561171e576040805190810160405280600081526020016000815250915061174b565b60408051908101604052808460000151815260200182856020015181151561174257fe5b06830381525091505b50919050565b611759611efd565b604080519081016040528060408051908101604052807f198e9393920d483a7260bfb731fb5d25f1aa493335a9e71297e485b7aef312c281526020017f1800deef121f1e76426a00665e5c4479674322d4f75edadd46debd5cd992f6ed815250815260200160408051908101604052807f090689d0585ff075ec9e99ad690c3395bc4b313370b38ef355acdadcd122975b81526020017f12c85ea5db8c6deb4aab71808dcb408fe3d1e7690c43d37b4ce6cc0166fa7daa815250815250905090565b6000606080600260405190808252806020026020018201604052801561185b57816020015b611848611e9d565b8152602001906001900390816118405790505b509150600260405190808252806020026020018201604052801561189957816020015b611886611f24565b81526020019060019003908161187e5790505b509050868260008151811015156118ac57fe5b90602001906020020181905250848260018151811015156118c957fe5b90602001906020020181905250858160008151811015156118e657fe5b906020019060200201819052508381600181518110151561190357fe5b9060200190602002018190525061191a8282611a6d565b92505050949350505050565b6000606080600360405190808252806020026020018201604052801561196657816020015b611953611e9d565b81526020019060019003908161194b5790505b50915060036040519080825280602002602001820160405280156119a457816020015b611991611f24565b8152602001906001900390816119895790505b509050888260008151811015156119b757fe5b90602001906020020181905250868260018151811015156119d457fe5b90602001906020020181905250848260028151811015156119f157fe5b9060200190602002018190525087816000815181101515611a0e57fe5b9060200190602002018190525085816001815181101515611a2b57fe5b9060200190602002018190525083816002815181101515611a4857fe5b90602001906020020181905250611a5f8282611a6d565b925050509695505050505050565b600080600060606000611a7e611f4b565b600087518951141515611a9057600080fd5b8851955060068602945084604051908082528060200260200182016040528015611ac95781602001602082028038833980820191505090505b509350600092505b85831015611ca6578883815181101515611ae757fe5b90602001906020020151600001518460006006860201815181101515611b0957fe5b90602001906020020181815250508883815181101515611b2557fe5b90602001906020020151602001518460016006860201815181101515611b4757fe5b90602001906020020181815250508783815181101515611b6357fe5b90602001906020020151600001516000600281101515611b7f57fe5b60200201518460026006860201815181101515611b9857fe5b90602001906020020181815250508783815181101515611bb457fe5b90602001906020020151600001516001600281101515611bd057fe5b60200201518460036006860201815181101515611be957fe5b90602001906020020181815250508783815181101515611c0557fe5b90602001906020020151602001516000600281101515611c2157fe5b60200201518460046006860201815181101515611c3a57fe5b90602001906020020181815250508783815181101515611c5657fe5b90602001906020020151602001516001600281101515611c7257fe5b60200201518460056006860201815181101515611c8b57fe5b90602001906020020181815250508280600101935050611ad1565b6020826020870260208701600060086107d05a03f190508060008114611ccb57611ccd565bfe5b50801515611cda57600080fd5b6000826000600181101515611ceb57fe5b60200201511415965050505050505092915050565b604080519081016040528060008019168152602001606081525090565b828054600181600116156101000203166002900490600052602060002090601f016020900481019282601f10611d5e57805160ff1916838001178555611d8c565b82800160010185558215611d8c579182015b82811115611d8b578251825591602001919060010190611d70565b5b509050611d999190611f6e565b5090565b61024060405190810160405280611db2611e9d565b8152602001611dbf611e9d565b8152602001611dcc611f24565b8152602001611dd9611e9d565b8152602001611de6611e9d565b8152602001611df3611e9d565b8152602001611e00611e9d565b8152602001611e0d611e9d565b81525090565b61032060405190810160405280611e28611f24565b8152602001611e35611e9d565b8152602001611e42611f24565b8152602001611e4f611f24565b8152602001611e5c611e9d565b8152602001611e69611f24565b8152602001611e76611f24565b8152602001606081525090565b604080519081016040528060008152602001600081525090565b604080519081016040528060008152602001600081525090565b606060405190810160405280600390602082028038833980820191505090505090565b608060405190810160405280600490602082028038833980820191505090505090565b608060405190810160405280611f11611f93565b8152602001611f1e611f93565b81525090565b608060405190810160405280611f38611f93565b8152602001611f45611f93565b81525090565b602060405190810160405280600190602082028038833980820191505090505090565b611f9091905b80821115611f8c576000816000905550600101611f74565b5090565b90565b6040805190810160405280600290602082028038833980820191505090505090565b600082601f8301121515611fc857600080fd5b6002611fdb611fd682612588565b61255b565b91508183856040840282011115611ff157600080fd5b60005b838110156120215781612007888261202b565b845260208401935060408301925050600181019050611ff4565b5050505092915050565b600082601f830112151561203e57600080fd5b600261205161204c826125aa565b61255b565b9150818385602084028201111561206757600080fd5b60005b83811015612097578161207d88826121f7565b84526020840193506020830192505060018101905061206a565b5050505092915050565b600082601f83011215156120b457600080fd5b60026120c76120c2826125cc565b61255b565b915081838560208402820111156120dd57600080fd5b60005b8381101561210d57816120f388826121f7565b8452602084019350602083019250506001810190506120e0565b5050505092915050565b600082601f830112151561212a57600080fd5b600661213d612138826125ee565b61255b565b9150818385602084028201111561215357600080fd5b60005b83811015612183578161216988826121f7565b845260208401935060208301925050600181019050612156565b5050505092915050565b60006121998235612667565b905092915050565b600082601f83011215156121b457600080fd5b81356121c76121c282612610565b61255b565b915080825260208301602083018583830111156121e357600080fd5b6121ee83828461267b565b50505092915050565b60006122038235612671565b905092915050565b60008060008060008060008060006102808a8c03121561222a57600080fd5b60006122388c828d016120a1565b99505060406122498c828d016120a1565b985050608061225a8c828d01611fb5565b97505061010061226c8c828d016120a1565b96505061014061227e8c828d016120a1565b9550506101806122908c828d016120a1565b9450506101c06122a28c828d016120a1565b9350506102006122b48c828d016120a1565b9250506102406122c68c828d016120a1565b9150509295985092959850929598565b600060c082840312156122e857600080fd5b60006122f684828501612117565b91505092915050565b60006020828403121561231157600080fd5b600061231f8482850161218d565b91505092915050565b60006020828403121561233a57600080fd5b600082013567ffffffffffffffff81111561235457600080fd5b612360848285016121a1565b91505092915050565b60006020828403121561237b57600080fd5b6000612389848285016121f7565b91505092915050565b61239b81612647565b82525050565b6123aa81612653565b82525050565b60006123bb8261263c565b8084526123cf81602086016020860161268a565b6123d8816126bd565b602085010191505092915050565b6000602282527f5472616e73616374696f6e207375636365737366756c6c79207665726966696560208301527f642e0000000000000000000000000000000000000000000000000000000000006040830152606082019050919050565b61244c8161265d565b82525050565b60006020820190506124676000830184612392565b92915050565b600060408201905061248260008301856123a1565b818103602083015261249481846123b0565b90509392505050565b600060208201905081810360008301526124b781846123b0565b905092915050565b600060208201905081810360008301526124d8816123e6565b9050919050565b60006020820190506124f46000830184612443565b92915050565b600060c08201905061250f6000830189612443565b61251c6020830188612443565b6125296040830187612443565b6125366060830186612443565b6125436080830185612443565b61255060a0830184612443565b979650505050505050565b6000604051905081810181811067ffffffffffffffff8211171561257e57600080fd5b8060405250919050565b600067ffffffffffffffff82111561259f57600080fd5b602082029050919050565b600067ffffffffffffffff8211156125c157600080fd5b602082029050919050565b600067ffffffffffffffff8211156125e357600080fd5b602082029050919050565b600067ffffffffffffffff82111561260557600080fd5b602082029050919050565b600067ffffffffffffffff82111561262757600080fd5b601f19601f8301169050602081019050919050565b600081519050919050565b60008115159050919050565b6000819050919050565b6000819050919050565b6000819050919050565b6000819050919050565b82818337600083830152505050565b60005b838110156126a857808201518184015260208101905061268d565b838111156126b7576000848401525b50505050565b6000601f19601f83011690509190505600a265627a7a7230582098caeae4e9f176bf9da6fd7ade5cf8c678e6babd90f4af76d909f14e8c4879f36c6578706572696d656e74616cf50037",
  "source": "// This file is MIT Licensed.\n//\n// Copyright 2017 Christian Reitwiessner\n// Permission is hereby granted, free of charge, to any person obtaining a copy of this software and associated documentation files (the \"Software\"), to deal in the Software without restriction, including without limitation the rights to use, copy, modify, merge, publish, distribute, sublicense, and/or sell copies of the Software, and to permit persons to whom the Software is furnished to do so, subject to the following conditions:\n// The above copyright notice and this permission notice shall be included in all copies or substantial portions of the Software.\n// THE SOFTWARE IS PROVIDED \"AS IS\", WITHOUT WARRANTY OF ANY KIND, EXPRESS OR IMPLIED, INCLUDING BUT NOT LIMITED TO THE WARRANTIES OF MERCHANTABILITY, FITNESS FOR A PARTICULAR PURPOSE AND NONINFRINGEMENT. IN NO EVENT SHALL THE AUTHORS OR COPYRIGHT HOLDERS BE LIABLE FOR ANY CLAIM, DAMAGES OR OTHER LIABILITY, WHETHER IN AN ACTION OF CONTRACT, TORT OR OTHERWISE, ARISING FROM, OUT OF OR IN CONNECTION WITH THE SOFTWARE OR THE USE OR OTHER DEALINGS IN THE SOFTWARE.\npragma solidity ^0.4.24;\npragma experimental ABIEncoderV2;\n\nlibrary Pairing {\n    struct G1Point {\n        uint X;\n        uint Y;\n    }\n    // Encoding of field elements is: X[0] * z + X[1]\n    struct G2Point {\n        uint[2] X;\n        uint[2] Y;\n    }\n    /// @return the generator of G1\n    function P1() pure internal returns (G1Point) {\n        return G1Point(1, 2);\n    }\n    /// @return the generator of G2\n    function P2() pure internal returns (G2Point) {\n        return G2Point(\n            [11559732032986387107991004021392285783925812861821192530917403151452391805634,\n             10857046999023057135944570762232829481370756359578518086990519993285655852781],\n            [4082367875863433681332203403145435568316851327593401208105741076214120093531,\n             8495653923123431417604973247489272438418190587263600148770280649306958101930]\n        );\n    }\n    /// @return the negation of p, i.e. p.addition(p.negate()) should be zero.\n    function negate(G1Point p) pure internal returns (G1Point) {\n        // The prime q in the base field F_q for G1\n        uint q = 21888242871839275222246405745257275088696311157297823662689037894645226208583;\n        if (p.X == 0 && p.Y == 0)\n            return G1Point(0, 0);\n        return G1Point(p.X, q - (p.Y % q));\n    }\n    /// @return the sum of two points of G1\n    function addition(G1Point p1, G1Point p2) internal returns (G1Point r) {\n        uint[4] memory input;\n        input[0] = p1.X;\n        input[1] = p1.Y;\n        input[2] = p2.X;\n        input[3] = p2.Y;\n        bool success;\n        assembly {\n            success := call(sub(gas, 2000), 6, 0, input, 0xc0, r, 0x60)\n            // Use \"invalid\" to make gas estimation work\n            switch success case 0 { invalid() }\n        }\n        require(success);\n    }\n    /// @return the product of a point on G1 and a scalar, i.e.\n    /// p == p.scalar_mul(1) and p.addition(p) == p.scalar_mul(2) for all points p.\n    function scalar_mul(G1Point p, uint s) internal returns (G1Point r) {\n        uint[3] memory input;\n        input[0] = p.X;\n        input[1] = p.Y;\n        input[2] = s;\n        bool success;\n        assembly {\n            success := call(sub(gas, 2000), 7, 0, input, 0x80, r, 0x60)\n            // Use \"invalid\" to make gas estimation work\n            switch success case 0 { invalid() }\n        }\n        require (success);\n    }\n    /// @return the result of computing the pairing check\n    /// e(p1[0], p2[0]) *  .... * e(p1[n], p2[n]) == 1\n    /// For example pairing([P1(), P1().negate()], [P2(), P2()]) should\n    /// return true.\n    function pairing(G1Point[] p1, G2Point[] p2) internal returns (bool) {\n        require(p1.length == p2.length);\n        uint elements = p1.length;\n        uint inputSize = elements * 6;\n        uint[] memory input = new uint[](inputSize);\n        for (uint i = 0; i < elements; i++)\n        {\n            input[i * 6 + 0] = p1[i].X;\n            input[i * 6 + 1] = p1[i].Y;\n            input[i * 6 + 2] = p2[i].X[0];\n            input[i * 6 + 3] = p2[i].X[1];\n            input[i * 6 + 4] = p2[i].Y[0];\n            input[i * 6 + 5] = p2[i].Y[1];\n        }\n        uint[1] memory out;\n        bool success;\n        assembly {\n            success := call(sub(gas, 2000), 8, 0, add(input, 0x20), mul(inputSize, 0x20), out, 0x20)\n            // Use \"invalid\" to make gas estimation work\n            switch success case 0 { invalid() }\n        }\n        require(success);\n        return out[0] != 0;\n    }\n    /// Convenience method for a pairing check for two pairs.\n    function pairingProd2(G1Point a1, G2Point a2, G1Point b1, G2Point b2) internal returns (bool) {\n        G1Point[] memory p1 = new G1Point[](2);\n        G2Point[] memory p2 = new G2Point[](2);\n        p1[0] = a1;\n        p1[1] = b1;\n        p2[0] = a2;\n        p2[1] = b2;\n        return pairing(p1, p2);\n    }\n    /// Convenience method for a pairing check for three pairs.\n    function pairingProd3(\n            G1Point a1, G2Point a2,\n            G1Point b1, G2Point b2,\n            G1Point c1, G2Point c2\n    ) internal returns (bool) {\n        G1Point[] memory p1 = new G1Point[](3);\n        G2Point[] memory p2 = new G2Point[](3);\n        p1[0] = a1;\n        p1[1] = b1;\n        p1[2] = c1;\n        p2[0] = a2;\n        p2[1] = b2;\n        p2[2] = c2;\n        return pairing(p1, p2);\n    }\n    /// Convenience method for a pairing check for four pairs.\n    function pairingProd4(\n            G1Point a1, G2Point a2,\n            G1Point b1, G2Point b2,\n            G1Point c1, G2Point c2,\n            G1Point d1, G2Point d2\n    ) internal returns (bool) {\n        G1Point[] memory p1 = new G1Point[](4);\n        G2Point[] memory p2 = new G2Point[](4);\n        p1[0] = a1;\n        p1[1] = b1;\n        p1[2] = c1;\n        p1[3] = d1;\n        p2[0] = a2;\n        p2[1] = b2;\n        p2[2] = c2;\n        p2[3] = d2;\n        return pairing(p1, p2);\n    }\n}\ncontract Verifier {\n    using Pairing for *;\n    struct VerifyingKey {\n        Pairing.G2Point A;\n        Pairing.G1Point B;\n        Pairing.G2Point C;\n        Pairing.G2Point gamma;\n        Pairing.G1Point gammaBeta1;\n        Pairing.G2Point gammaBeta2;\n        Pairing.G2Point Z;\n        Pairing.G1Point[] IC;\n    }\n    struct Proof {\n        Pairing.G1Point A;\n        Pairing.G1Point A_p;\n        Pairing.G2Point B;\n        Pairing.G1Point B_p;\n        Pairing.G1Point C;\n        Pairing.G1Point C_p;\n        Pairing.G1Point K;\n        Pairing.G1Point H;\n    }\n    function verifyingKey() pure internal returns (VerifyingKey vk) {\n        vk.A = Pairing.G2Point([0xf3f408d2bc3f51dc3c00c99ebd66aba2253cea7fdf3a5c9f912358197b05f74, 0x13659340f4f6341dbb3ef7c032be44694ed428ea6f11ddd001f35a73c0044cf9], [0x1c706f3935470926064002699025a0619dfd9b57ece09bb6a07915d135335ea4, 0xd6d14f16f9ae44f6179e1143f90ac84cf3e294ff228fcbd5664bde6b9879c33]);\n        vk.B = Pairing.G1Point(0x6d188e95e8690b4bb933ec643d615475434395e34d7fe101a5a6ee0603e3767, 0x21bc4a3280cd90560cbe9a8892016ee62212cd1ee52642890a75b1526f835805);\n        vk.C = Pairing.G2Point([0x115f9515840902b62adf57fe92870dc007d65a2f5916da4877193a342421ee99, 0x2ab55bc18464e76846380ff064825a4c3de4fa6c8432815527fe2e92280be61f], [0x16f240f2758de29d0fdbda3f4e8651b94334ee0b6e719bee02ffc66a82cb8e6, 0x1fe9c2583a24671c4d99dc1900183a8fee6c3195ee633f3f10431251471c3843]);\n        vk.gamma = Pairing.G2Point([0x881b8325ad6bfc0c02aad20a36d236c51c31f9905df3e76e4e57663236d9294, 0x2bd5727293a93ad6579cf781b2a3c576c180f2b9eec0169b27d6cb6451e0c00b], [0x823565a081d7249be81c57a7eaaf869a09943df77f5a81c7532f91fffbe027, 0x8e104348f1d92ee14b0a669366748d5c49420532e7ff61ca882f0dc7871c979]);\n        vk.gammaBeta1 = Pairing.G1Point(0x103a28945156124785dfbfc29a6b337cb61ae96683f3fabf442c08251a8c7101, 0xd6ece0b1d3b6db1d75fbe706826c19f461b9d6c685664fc04b1e9fd10c81785);\n        vk.gammaBeta2 = Pairing.G2Point([0xb5b951747d7f744648bb6098f5c1f6bc2cdad5c34045364d18265fa7dcc4127, 0xf51e06b6672555333cba534273af7808a6553cd354c6b3f3ab3e7e9f80e0fa8], [0x14132fcb151b88d4a70b262a17fb8e248cd30a386cf43cbb0da5b2fb8008fa6d, 0x11e98ff548d9b2f5eed39074b0ba2e1f72df67d955208fee578ace8dba354d04]);\n        vk.Z = Pairing.G2Point([0x9f05191be941b3d1d7f685efe4289fe0dce8a6e54403a563d61ea6da5018483, 0x254f80ff5961e25bcf7b1d26d40afd7e911fb86fe460ff18577865c9fd785a39], [0x20c748ce635a060d1108468f0e2943ff52200083ddc0a1eb795badcdb3cbfe8f, 0xcecc703383086a3ed4f66435c1b22aa472f478cbd2455ab57b211e53198e593]);\n        vk.IC = new Pairing.G1Point[](3);\n        vk.IC[0] = Pairing.G1Point(0xadc49208b8daf6732c9a1c1b7ffbb9be75d83be00811e4c9344abb374bfeed4, 0x2dd218ed882d624ac54899512fa4ba81f150f677c885c23810418cd68367ccaf);\n        vk.IC[1] = Pairing.G1Point(0x26ac79311204d42e4ff943831322280ef9f9f345b334ff71b52dda99ea4aea69, 0x2c6f8e731bfc80416eb935f9e61064360bba4270a81c4b69d334ac480a988bd6);\n        vk.IC[2] = Pairing.G1Point(0x21376678a99024b68c9b7d7815eaa8db7a18322793d6ae82d33ccc8e3c2cc18, 0xafcfcf43684d6384a5b9227369b38146f5f3cec1798f449d5d2e2352f216027);\n    }\n    function verify(uint[] input, Proof proof) internal returns (uint) {\n        VerifyingKey memory vk = verifyingKey();\n        require(input.length + 1 == vk.IC.length);\n        // Compute the linear combination vk_x\n        Pairing.G1Point memory vk_x = Pairing.G1Point(0, 0);\n        for (uint i = 0; i < input.length; i++)\n            vk_x = Pairing.addition(vk_x, Pairing.scalar_mul(vk.IC[i + 1], input[i]));\n        vk_x = Pairing.addition(vk_x, vk.IC[0]);\n        if (!Pairing.pairingProd2(proof.A, vk.A, Pairing.negate(proof.A_p), Pairing.P2())) return 1;\n        if (!Pairing.pairingProd2(vk.B, proof.B, Pairing.negate(proof.B_p), Pairing.P2())) return 2;\n        if (!Pairing.pairingProd2(proof.C, vk.C, Pairing.negate(proof.C_p), Pairing.P2())) return 3;\n        if (!Pairing.pairingProd3(\n            proof.K, vk.gamma,\n            Pairing.negate(Pairing.addition(vk_x, Pairing.addition(proof.A, proof.C))), vk.gammaBeta2,\n            Pairing.negate(vk.gammaBeta1), proof.B\n        )) return 4;\n        if (!Pairing.pairingProd3(\n                Pairing.addition(vk_x, proof.A), proof.B,\n                Pairing.negate(proof.H), vk.Z,\n                Pairing.negate(proof.C), Pairing.P2()\n        )) return 5;\n        return 0;\n    }\n    event Verified(string s);\n    function verifyTx(\n            uint[2] a,\n            uint[2] a_p,\n            uint[2][2] b,\n            uint[2] b_p,\n            uint[2] c,\n            uint[2] c_p,\n            uint[2] h,\n            uint[2] k,\n            uint[2] input\n        ) public returns (bool r) {\n        Proof memory proof;\n        proof.A = Pairing.G1Point(a[0], a[1]);\n        proof.A_p = Pairing.G1Point(a_p[0], a_p[1]);\n        proof.B = Pairing.G2Point([b[0][0], b[0][1]], [b[1][0], b[1][1]]);\n        proof.B_p = Pairing.G1Point(b_p[0], b_p[1]);\n        proof.C = Pairing.G1Point(c[0], c[1]);\n        proof.C_p = Pairing.G1Point(c_p[0], c_p[1]);\n        proof.H = Pairing.G1Point(h[0], h[1]);\n        proof.K = Pairing.G1Point(k[0], k[1]);\n        uint[] memory inputValues = new uint[](input.length);\n        for(uint i = 0; i < input.length; i++){\n            inputValues[i] = input[i];\n        }\n        if (verify(inputValues, proof) == 0) {\n            emit Verified(\"Transaction successfully verified.\");\n            return true;\n        } else {\n            return false;\n        }\n    }\n\n\n\n\n    /*\n    ********** Start of Customized Cross Selling Code *********** \n    */\n\n    // User Struct whos elements will be used to determine VIP Level\n    struct User {\n        bytes32 userHash;           // ID number for the user\n        string name;                // Name of user        // 1-10 based on how good they are at paying their bills\n    }\n\n\n    //Not Yet Implemented -- Have Credit Company Specify the weights to use for VIP Score calculation\n    struct creditWeights {\n        uint256 w1;\n        uint256 w2;\n        uint256 w3;\n        uint256 w4;\n        uint256 w5;\n        uint256 w6;\n    }\n\n    creditWeights public weights = creditWeights(1,1,1,1,1,1);\n    uint256[6] public weights2 = [1,1,1,1,1,1];\n\n    uint256 id_num;\n\n    uint256 num = 0;\n\n    //List of all Users\n    User[] allUsers;  \n\n    //Mappings from ID -> User and ID -> VIP Score\n    mapping(uint256=>User) BankUser;\n    mapping(uint256=>uint256) VIPScore;\n\n    event UserAdd(string user);\n\n    constructor() public {\n        addUser(\"Ken\");\n        addUser(\"Yijia\");\n        addUser(\"Nick\");\n        addUser(\"Melissa\");\n        addUser(\"Mari\");\n        addUser(\"Nicoli\");\n        addUser(\"Elon\");\n        addUser(\"Benjamin\");\n        addUser(\"Franklin\");\n        addUser(\"Franz\");\n    }\n\n    function addUser(string name) public returns (uint256) {\n        id_num = id_num + 1;\n        bytes32 userHash = keccak256(abi.encodePacked(strConcat(bytes32ToString(bytes32(id_num)),name))); // need to add stuff to this!!\n        User memory newUser = User(userHash, name);\n        allUsers.push(newUser);\n        BankUser[id_num] = newUser;\n        emit UserAdd(name);\n    }\n    function strConcat(string _a, string _b) internal pure returns (string) {\n        bytes memory _ba = bytes(_a);\n        bytes memory _bb = bytes(_b);\n        string memory abcde = new string(_ba.length + _bb.length);\n        bytes memory babcde = bytes(abcde);\n        uint k = 0;\n        for (uint i = 0; i < _ba.length; i++) babcde[k++] = _ba[i];\n        for (i = 0; i < _bb.length; i++) babcde[k++] = _bb[i];\n        return string(babcde);\n    }\n\n    function bytes32ToString (bytes32 data) public pure returns (string) {\n        bytes memory bytesString = new bytes(32);\n        for (uint j = 0; j < 32; j++ ) {\n            byte char = byte(bytes32(uint(data) * 2 ** (8 * j)));\n            if (char != 0) {\n                bytesString[j] = char;\n            }\n        }\n        return string(bytesString);\n    }\n\n\n    event UpdateWeights(uint256 num);\n    function setWeights(uint256[6] woah) public returns (uint256) {\n        weights.w1 = woah[0];\n        weights.w2 = woah[1];\n        weights.w3 = woah[2];\n        weights.w4 = woah[3];\n        weights.w5 = woah[4];\n        weights.w6 = woah[5];\n        return weights.w1;\n\n    }\n\n    function getWeights() public view returns (uint256 w1, uint256 w2,uint256 w3,uint256 w4,uint256 w5,uint256 w6) {\n        return (weights.w1, weights.w2, weights.w3, weights.w4, weights.w5, weights.w6);\n    }\n\n    function getUser(uint256 id) public view returns (bytes32 hash, string name) {\n        User storage user = allUsers[id];\n        return (user.userHash, user.name);\n    }\n        \n}\n",
  "sourcePath": "/Users/kenmiyachi/Startups/Origo/assignment/zero-knowledge/contracts/verifier.sol",
  "compiler": {
    "name": "solc",
    "version": "0.4.24+commit.e67f0147.Emscripten.clang"
  },
  "schemaVersion": "2.0.1",
  "updatedAt": "2018-10-28T03:06:49.496Z"
}